:1000000000040020954C00003D4B00003F4B0000D9
:10001000414B0000434B0000454B00000000000036
:10002000000000000000000000000000494B00003C
:10003000474B0000000000004B4B00004D4B000000
:10004000F34C0000F74C0000FB4C0000FF4C00009C
:10005000034D0000074D00000B4D00004F4B00000A
:10006000134D0000174D00001B4D00001F4D0000F8
:10007000234D0000274D00002B4D00002F4D0000A8
:10008000334D0000374D00003B4D0000514B000048
:10009000534B0000474D00004B4D00004F4D0000FA
:1000A000534D0000574D00005B4D00005F4D0000B8
:1000B000634D0000674D00006B4D00006F4D000068
:1000C000734D0000774D00007B4D00007F4D000018
:1000D000834D0000874D0000ED4A00008F4D000069
:1000E000934D0000974D00009B4D000070B59CB0F3
:1000F000040000250026200000F03CF8C0B20028D3
:1001000008D1002602E000203055761C702EFADB64
:1001100000202DE0002603E0305D00A97054761C1D
:100120006D2EF9DB6D2100A800F059F8002006E0E3
:10013000C0B2C0B2DFF8741D415C0155401CC0B2B2
:100140007028F5D30A2003E0C0B2015D4D19401CB0
:10015000C0B20F28F8D3EDB2002D08D1002602E07E
:1001600000203055761C702EFADB002000E0702055
:100170001CB070BD10B5ADF50C7D040070A803F087
:100180004EFCC0B2002801D1002025E0002007E08D
:10019000C0B201A9C0B270AA825C41F82020401C04
:1001A000C0B26E28F4D36E20009000A901A801F01F
:1001B00031FC002801D000200EE0002007E0C0B292
:1001C00001A911EB80014968C0B20155401CC0B2C1
:1001D0006D28F4D30098C0B20DF50C7D10BD30B57C
:1001E000EFB00C003225A4B20094002107E0C9B2A0
:1001F00001AA12EB8102C9B20B5C5360491C0A00D0
:10020000D2B292B2A4B2A242F1D3002001906E20E9
:100210000090DFF89C0C0078401CDFF8941C0870FC
:10022000DFF88C0C007810F00100DFF8841C0870F7
:10023000C0B2002803D0029890F01000029000A9EC
:1002400001A800F029F8DFF8641C30220A70DFF8FA
:100250005C1C02224A70002110E0C9B201A810EB18
:1002600081004068C9B2DFF8442C8A189070C9B286
:10027000DFF8380C081880784519491C0800C0B20E
:1002800080B2A4B2A042E8D3DFF8200C80F86F500F
:100290002000C0B26FB030BD70B504000D006068C2
:1002A000002801D0012000E00020C0B2002801D1C8
:1002B000002013E0606890F01000606029002000CA
:1002C00000F00DF80600002E04D0320029002000B6
:1002D00000F03AFE606810F0F000304370BD2DE988
:1002E000F14F88B00820009084E0DFF8C80B006868
:1002F000069000200190DFF8BC0B0068089951F8C7
:100300002070DFF8B00B0068401CDFF8A81B086005
:10031000802F0DD30197DFF89C0B0068089951F8E6
:100320002070DFF8900B0068401CDFF8881B086025
:100330000298009949425722DFF87C3B02FB0131C9
:10034000401890F8B802F0286BD102980099494201
:100350005722DFF8643B02FB0131401890F8B902E4
:1003600004900298009949425722DFF84C3B02FB67
:100370000131401890F8BA42029800994942572238
:10038000DFF8343B02FB0131401890F8BB52029871
:10039000009949425722DFF8203B02FB0131401807
:1003A00090F8BC620298401D0290019810F07F09FD
:1003B0004FF4807000FB09F917EB090914F07F0A6C
:1003C0004FF4807000FB0AFA049810EB0A0A16F04A
:1003D0007F0B4FF4807000FB0BFB15EB0B0B5A46A9
:1003E0005146484600F06AFD00283FF47EAF009871
:1003F000401E00900098002800F05385009840426D
:100400005721DFF8B42A01FB002090F8C802002829
:1004100040F07E8312200290DFF8980A05210160E7
:1004200063E70298009949425722DFF88C3A02FBB1
:100430000131401890F8B802F12840F05983029831
:10044000009949425722DFF8703A02FB0131401807
:1004500090F8B90203900298801C02900020059049
:1004600022E0DFF8500A0068069000200190DFF8D3
:10047000440A0068089951F82070DFF8380A0068CB
:10048000401CDFF8301A0860802F0DD30197DFF889
:10049000240A0068089951F82070DFF8180A0068EB
:1004A000401CDFF8101A08605FF000080098404216
:1004B0005721DFF8042A01FB002018EB000090F818
:1004C000B802049018F10108009840425721DFF863
:1004D000E82901FB002018EB000090F8B84218F161
:1004E0000108009840425721DFF8CC2901FB002089
:1004F00018EB000090F8B85218F10108009840423B
:100500005721DFF8B42901FB002018EB000090F818
:10051000B86218F10108019810F07F094FF480705B
:1005200000FB09F917EB090914F07F0A4FF48070FA
:1005300000FB0AFA049810EB0A0A16F07F0B4FF43E
:10054000807000FB0BFB15EB0B0B5A4651464846DF
:1005500000F0B4FC002840F0A48100200190DFF8F6
:1005600054090068089951F82070DFF848090068BC
:10057000401CDFF840190860802F0DD30197DFF889
:1005800034090068089951F82070DFF828090068DC
:10059000401CDFF8201908605FF004080098404212
:1005A0005721DFF8142901FB002018EB000090F818
:1005B000B802049018F10108009840425721DFF872
:1005C000F82801FB002018EB000090F8B84218F161
:1005D0000108009840425721DFF8DC2801FB002089
:1005E00018EB000090F8B85218F10108009840424A
:1005F0005721DFF8C42801FB002018EB000090F819
:10060000B86218F10108019810F07F094FF480706A
:1006100000FB09F917EB090914F07F0A4FF4807009
:1006200000FB0AFA049810EB0A0A16F07F0B4FF44D
:10063000807000FB0BFB15EB0B0B5A4651464846EE
:1006400000F03CFC002809D10398401E0390039859
:1006500000287FF406AF0120059044E2DFF854083B
:100660000699016000200190DFF8480800680899A9
:1006700051F82070DFF83C080068401CDFF834189F
:100680000860802F0DD30197DFF8280800680899CB
:1006900051F82070DFF81C080068401CDFF81418BF
:1006A00008605FF00808009840425721DFF80828EA
:1006B00001FB002018EB000090F8B802049018F13C
:1006C0000108009840425721DFF8EC2701FB002089
:1006D00018EB000090F8B84218F101080098404269
:1006E0005721DFF8D42701FB002018EB000090F819
:1006F000B85218F10108009840425721DFF8B82796
:1007000001FB002018EB000090F8B86218F1010816
:10071000019810F07F094FF4807000FB09F917EB86
:10072000090914F07F0A4FF4807000FB0AFA04985C
:1007300010EB0A0A16F07F0B4FF4807000FB0BFBE6
:1007400015EB0B0B5A465146484600F0B7FB002804
:1007500040F0A68000200190DFF858070068089953
:1007600051F82070DFF84C070068401CDFF8441790
:100770000860802F0DD30197DFF8380700680899CB
:1007800051F82070DFF82C070068401CDFF82417B0
:1007900008605FF00C08009840425721DFF81827E6
:1007A00001FB002018EB000090F8B802049018F14B
:1007B0000108009840425721DFF8FC2601FB002089
:1007C00018EB000090F8B84218F101080098404278
:1007D0005721DFF8E42601FB002018EB000090F819
:1007E000B85218F10108009840425721DFF8C82696
:1007F00001FB002018EB000090F8B86218F1010826
:10080000019810F07F094FF4807000FB09F917EB95
:10081000090914F07F0A4FF4807000FB0AFA04986B
:1008200010EB0A0A16F07F0B4FF4807000FB0BFBF5
:1008300015EB0B0B5A465146484600F03FFB00288B
:100840002DD10398401E03900398002802D1012067
:10085000059048E1DFF85C060068069000200190F2
:10086000DFF850060068089951F82070DFF8440658
:100870000068401CDFF83C160860802FFFF414AEBF
:100880000197DFF830060068089951F82070DFF80A
:1008900024060068401CDFF81C16086004E622E10C
:1008A00021E1DFF810060699016000200190DFF8D1
:1008B00004060068089951F82070DFF8F805006810
:1008C000401CDFF8F0150860802F0DD30197DFF88A
:1008D000E4050068089951F82070DFF8D805006831
:1008E000401CDFF8D01508605FF00808009840420F
:1008F0005721DFF8C42501FB002018EB000090F819
:10090000B802049018F10108009840425721DFF81E
:10091000A82501FB002018EB000090F8B84218F160
:100920000108009840425721DFF88C2501FB002088
:1009300018EB000090F8B85218F1010800984042F6
:100940005721DFF8742501FB002018EB000090F818
:10095000B86218F10108019810F07F094FF4807017
:1009600000FB09F917EB090914F07F0A4FF48070B6
:1009700000FB0AFA049810EB0A0A16F07F0B4FF4FA
:10098000807000FB0BFB15EB0B0B5A46514648469B
:1009900000F094FA002840F0A68000200190DFF8D3
:1009A00014050068089951F82070DFF80805006800
:1009B000401CDFF800150860802F0DD30197DFF889
:1009C000F4040068089951F82070DFF8E804006822
:1009D000401CDFF8E01408605FF00C08009840420B
:1009E0005721DFF8D42401FB002018EB000090F819
:1009F000B802049018F10108009840425721DFF82E
:100A0000B82401FB002018EB000090F8B84218F160
:100A10000108009840425721DFF89C2401FB002088
:100A200018EB000090F8B85218F101080098404205
:100A30005721DFF8842401FB002018EB000090F818
:100A4000B86218F10108019810F07F094FF4807026
:100A500000FB09F917EB090914F07F0A4FF48070C5
:100A600000FB0AFA049810EB0A0A16F07F0B4FF409
:100A7000807000FB0BFB15EB0B0B5A4651464846AA
:100A800000F01CFA00282DD10398401E0390039813
:100A9000002802D10120059025E0DFF81804006845
:100AA000069000200190DFF80C040068089951F8C6
:100AB0002070DFF800040068401CDFF8F8130860BD
:100AC000802FFFF4F1AC0197DFF8E8030068089984
:100AD00051F82070DFF8DC030068401CDFF8D41305
:100AE0000860E1E4FFE7059800287FF4FEAB7EE4B0
:100AF0000298009949425722DFF8BC3302FB0131CA
:100B0000401890F8B802F22801D10098CAE16EE4CA
:100B1000009840425721DFF8A02301FB002090F805
:100B2000C802012840F0BB8112200290DFF8840344
:100B300005210160009840425721DFF87C2301FB2A
:100B4000002090F8C90206900020059001E00020E6
:100B500005900598002818D100200190D54800681C
:100B6000089951F82070D3480068401CD1490860AA
:100B7000802F0AD30197CF480068089951F8207058
:100B8000CC480068401CCB49086002980099494253
:100B90005722C94B02FB0131401890F8B802F028E7
:100BA00073D10298009949425722C34B02FB01318D
:100BB000401890F8B90204900298009949425722CF
:100BC000BD4B02FB0131401890F8BA4202980099DF
:100BD00049425722B84B02FB0131401890F8BB52F2
:100BE0000298009949425722B34B02FB0131401849
:100BF00090F8BC620298401D0290019810F07F09A5
:100C00004FF4807000FB09F917EB090914F07F0A13
:100C10004FF4807000FB0AFA049810EB0A0A16F0F1
:100C20007F0B4FF4807000FB0BFB15EB0B0B5A4650
:100C30005146484600F042F9002888D05A465146AD
:100C4000484600F03BF90F2802D00598002801D053
:100C5000FFF7CDBB1BEB0A0A5FEA5A0AB9EB0A0998
:100C60005FEA192001904FF48070B9FBF0F707FBA1
:100C700010970198002801D1802F03D3019850F0DC
:100C8000800001900120059063E702980099494295
:100C90005722894B02FB0131401890F8B802F12825
:100CA00040F0ED800298009949425722824B02FBA6
:100CB0000131401890F8B902039003984000039066
:100CC0000698C00702D50398401E03900298801C26
:100CD00002905FF00008009840425721764A01FBDD
:100CE000002018EB000090F8B802049018F10108F9
:100CF000009840425721704A01FB002018EB000089
:100D000090F8B84218F101080098404257216A4A09
:100D100001FB002018EB000090F8B85218F1010810
:100D2000009840425721644A01FB002018EB000064
:100D300090F8B86218F10108002007901BE00598B0
:100D4000002818D1002001905A480068089951F8ED
:100D5000207058480068401C56490860802F0AD30C
:100D6000019754480068089951F82070514800686C
:100D7000401C50490860019810F07F094FF48070C2
:100D800000FB09F917EB090914F07F0A4FF4807092
:100D900000FB0AFA049810EB0A0A16F07F0B4FF4D6
:100DA000807000FB0BFB15EB0B0B5A465146484677
:100DB00000F084F800280DD1002005900398401E13
:100DC000039003980028BAD1079800283FF4C1AED9
:100DD000FFF70DBB5A465146484600F06FF80F2802
:100DE00002D00598002802D001200790ECE7009877
:100DF00040425721304A01FB002090F8C70210F012
:100E00007F0A4FF4807000FB0AFA00984042572195
:100E1000294A01FB002090F8C60210EB0A0AB9EB40
:100E20000A095FEA192001904FF48070B9FBF0F7CE
:100E300007FB1097012005900398401E039003982C
:100E40000028C1D00598002895D1002001901948AC
:100E50000068089951F8207016480068401C154930
:100E60000860802F87D3019712480068089951F8CD
:100E7000207010480068401C0E4908607BE702980B
:100E80000099494257220C4B02FB0131401890F85F
:100E9000B802F22801D1009804E0FFF7A8BA0020B8
:100EA00000E0002009B0BDE8F08F000054110020E0
:100EB0004612002038120020483E0000884203D32A
:100EC000824201D3002004E0824201D2F02000E0FF
:100ED0000F20704710B4202827D2FF2901D9012004
:100EE00030E0814204D34C0864080B1A010002E090
:100EF00044086408431A102905D3A34201D30120F2
:100F000020E000201EE0002A09D1052905D3A342D4
:100F100001D3012016E0002014E0002012E0052B90
:100F200001D301200EE000200CE043085B085B08C1
:100F3000884201D3441A00E00C1A9C4201D30120DC
:100F400000E0002010BC70472DE9F74F8AB00C98E4
:100F5000012802D00C98002801D100F04DBD0C985A
:100F60000528C0F0A1810C98D0F108000C900C98D5
:100F7000DFF88C1A405C0390DFF8880A05210160D5
:100F8000039A22E0DFF87C0A006802900027DFF86D
:100F9000740A00680A9951F82060DFF8680A00684E
:100FA000401CDFF8601A0860802E0DD33700DFF890
:100FB000540A00680A9951F82060DFF8480A00686E
:100FC000401CDFF8401A0860521E002ADAD1DFF810
:100FD000380A002101600024DFF8280A00680A9915
:100FE00051F820000190DFF81C0A0068401CDFF86F
:100FF000141A0860019880280ED3019CDFF8040AB7
:1010000000680A9951F820000190DFF8F80900689B
:10101000401CDFF8F01908600024DFF8E8090068D8
:101020000A9951F820000190DFF8D8090068401CA7
:10103000DFF8D0190860019880280ED3019CDFF8F2
:10104000C40900680A9951F820000190DFF8B4093A
:101050000068401CDFF8AC190860019DA04617F03D
:101060007F0B4FF4807000FB0BFB16EB0B0B14F0A7
:101070007F094FF4807000FB09F9019810EB090912
:101080000A98007910F0800249465846FFF722FF7F
:101090000028A0D0D9453ED20A980079C00600F1B8
:1010A000AB84DFF8600902990160DFF85809006835
:1010B0000A9951F820000690802D02D2B8F1000F55
:1010C0006AD00698802804D2029A0B990A9801F0F7
:1010D00054F8DFF8300902990160DFF82809006848
:1010E0000A9958F0800241F82020DFF818090068BA
:1010F000401CDFF810190860DFF8080900680A9939
:1011000041F82050DFF8FC080068401CDFF8F418B4
:10111000086000F071BCB9EB0B090C984000DFF8D7
:10112000E4180860DFF8DC0800684000DFF8D41835
:101130000860DFF8D0080068401CDFF8C8180860B5
:10114000DFF8C0080068DFF8C418445CDFF8B408B2
:101150000068401EDFF8AC180860DFF8A8080068D7
:10116000DFF8A818405C0190DFF898080068401E7E
:10117000DFF89018086014F07F0B4FF4807000FBCC
:101180000BFB019810EB0B0BCB4525D30A9800798C
:10119000C00686D400F030BC069880280DD3DFF856
:1011A000640800680A99002241F82020DFF85408FA
:1011B0000068401CDFF84C180860DFF84808006839
:1011C0000A9941F82050DFF83C080068401CDFF81D
:1011D0003418086000F010BC0C984000DFF82418A8
:1011E0000860DFF8200800684000DFF81818086081
:1011F000DFF810080068DFF81418455CDFF8040811
:101200000068401CDFF8FC1708600195DFF8F40760
:101210000068DFF8F81710F80180444617F07F0BDC
:101220004FF4807000FB0BFB16EB0B0B14F07F09E7
:101230004FF4807000FB09F9019810EB09090A9836
:10124000007910F0800249465846FFF743FE002817
:1012500029D10C984000DFF8AC170860DFF8A4072C
:1012600000684000DFF89C170860DFF89807006806
:10127000801CDFF890170860DFF888070068DFF847
:101280008C17455CDFF87C070068401CDFF874179A
:1012900008600195DFF86C070068DFF8701710F838
:1012A00001804446F8E671E70C9800900C984042A3
:1012B000DFF84C174018007A0C9012200290DFF8EB
:1012C000440705210160009840425721DFF840277C
:1012D00001FB002090F8C90209905FF0000801208E
:1012E00005900120049005E0059890F0010005901C
:1012F0005FF00008B8F1000F21D1DFF8080700689F
:1013000008900027DFF8FC0600680A9951F8206071
:10131000DFF8F0060068401CDFF8E8160860802E51
:101320000DD33700DFF8DC0600680A9951F8206019
:10133000DFF8D0060068401CDFF8C8160860029885
:10134000009949425722DFF8C83602FB01314018A4
:1013500090F8B802F02874D10298009949425722B7
:10136000DFF8AC3602FB0131401890F8B902019069
:101370000298009949425722DFF8943602FB013166
:10138000401890F8BA420298009949425722DFF873
:10139000803602FB0131401890F8BB02039002989E
:1013A000009949425722DFF8683602FB01314018A4
:1013B00090F8BC520298401D029017F07F0A4FF43B
:1013C000807000FB0AFA16EB0A0A14F07F0B4FF448
:1013D000807000FB0BFB019810EB0B0B15F07F09E5
:1013E0004FF4807000FB09F9039810EB09094A4695
:1013F00059465046FFF762FD00283FF475AF4A4654
:1014000059465046FFF75AFD0F2802D0B8F1010F98
:1014100000D1F1E21BEB090B5FEA5B0BBAEB0B0AA5
:101420005FEA1A274FF48070BAFBF0F606FB10A6AD
:10143000002F01D1802E01D357F080075FF0010803
:1014400058E70298009949425722DFF8C43502FB59
:101450000131401890F8B802F12840F0CC8202988F
:10146000009949425722DFF8A83502FB01314018A4
:1014700090F8B90206900298801C029000984042B1
:101480005721DFF88C2501FB002090F8B80201906D
:10149000009840425721DFF8782501FB002090F8A2
:1014A000B942009840425721DFF8642501FB002033
:1014B00090F8BA020390009840425721DFF8502577
:1014C00001FB002090F8BB520120079021E0DFF8DB
:1014D0003405006808900027DFF8280500680A999D
:1014E00051F82060DFF81C050068401CDFF8141577
:1014F0000860802E0DD33700DFF8080500680A99D0
:1015000051F82060DFF8FC040068401CDFF8F41498
:10151000086017F07F0A4FF4807000FB0AFA16EBA0
:101520000A0A14F07F0B4FF4807000FB0BFB01984C
:1015300010EB0B0B15F07F094FF4807000FB09F9DD
:10154000039810EB09094A4659465046FFF7B6FC86
:10155000002806D1059890F0010005905FF0000882
:101560002BE0009840425721DFF8A42401FB002023
:1015700090F8C70210F07F0B4FF4807000FB0BFB5C
:10158000009840425721DFF8882401FB002090F8A2
:10159000C60210EB0B0BBAEB0B0A5FEA1A274FF4EB
:1015A0008070BAFBF0F606FB10A6002F01D1802E4A
:1015B00001D357F080075FF001080998012802D194
:1015C000049800280CD1079890F001000790079824
:1015D000002804D1B8F1000F3FF479AF99E701E09A
:1015E00000200490012007900C98401E0C900C984D
:1015F000002840F0F8810598012803D10A98007965
:10160000C00606D50598002804D10A980079C006BE
:1016100000D5F1E1012004905FF00009089A0B99D0
:101620000A9800F0D7FD0890009840425721DFF853
:10163000E02301FB002090F8C20201900098404294
:101640005721DFF8CC2301FB002090F8C34200278C
:10165000DFF8B40300680A9951F82060DFF8A803A6
:101660000068401CDFF8A0130860802E0DD33700FF
:10167000DFF8940300680A9951F82060DFF88803C6
:101680000068401CDFF88013086000984042572132
:10169000DFF87C2301FB002090F8C402039000983F
:1016A00040425721DA4A01FB002090F8C55217F05A
:1016B0007F0A4FF4807000FB0AFA16EB0A0A15F055
:1016C0007F0B4FF4807000FB0BFB039810EB0B0BB0
:1016D000DA4502D35FF0010804E05FF0000801E0A2
:1016E0005FF00008B8F1000F40F09A8014F07F0B13
:1016F0004FF4807000FB0BFB019810EB0B0B1BEB06
:101700000A0A009840425721C14A01FB002090F884
:10171000C0020390009840425721BD4A01FB0020BF
:1017200090F8C15215F07F0B4FF4807000FB0BFB5B
:10173000039810EB0B0B5FEA1A274FF48070BAFB8B
:10174000F0F606FB10A6002F01D1802E01D357F032
:1017500080074FF48070BAFBF0F101FB10A1DA456D
:1017600002D35FF0010801E05FF00008B8F1000F5C
:101770002FD0009840425721A54A01FB002090F845
:10178000C6020390009840425721A14A01FB002065
:1017900090F8C75215F07F0B4FF4807000FB0BFBE5
:1017A000039810EB0B0BBAEB0B0A5FEA1A274FF406
:1017B0008070BAFBF0F606FB10A6002F01D1802E38
:1017C00001D357F080074FF48070BAFBF0F101FBB2
:1017D00010A10A9A380000F030FD00278A480068FE
:1017E0000A9951F8206088480068401C86490860C2
:1017F000802E0AD33700844800680A9951F8206087
:1018000081480068401C804908600A988068401E32
:101810000A9988600A98C068401E0A99C86064E006
:101820000A988068401C0A9988600A98C068401C21
:101830000A99C860049890F0010004900498012867
:1018400030D101990A9A200000F0F7FC17F07F0AC6
:101850004FF4807000FB0AFA16EB0A0A14F07F0BB3
:101860004FF4807000FB0BFB019810EB0B0BBAEBF5
:101870000B0A5FEA1A274FF48070BAFBF0F606FBFA
:1018800010A6002F01D1802E01D357F080074FF40E
:101890008070BAFBF0F101FB10A10A9A380000F049
:1018A000CCFC22E017F07F0A4FF4807000FB0AFAAC
:1018B00016EB0A0A14F07F0B4FF4807000FB0BFB51
:1018C000019810EB0B0BBAEB0B0A4FF48070BAFBCC
:1018D000F0F101FB10A10A9A5FEA1A2000F0ADFCBA
:1018E00001990A9A200000F0A8FC19F10109B9F148
:1018F000020F38D30B980068021F434800689042DB
:1019000018D213E03F4800680A993F4B1B680A9CB5
:1019100054F8233041F820303B480068401C3A49D5
:10192000086038480068401C36490860364800683E
:101930009042E7D30022042A5ED2324800680A9916
:10194000314B1B680A9C54F8233041F820302E4854
:101950000068401C2C4908602A480068401C29493E
:101960000860521CE7E70027274800680A9951F8E9
:10197000206025480068401C23490860802E0AD357
:101980003700214800680A9951F820601E48006815
:10199000401C1D4908600098404257211C4A01FB29
:1019A000002090F8C4020390009840425721184A42
:1019B00001FB002090F8C55217F07F0A4FF48070A9
:1019C00000FB0AFA16EB0A0A15F07F0B4FF4807041
:1019D00000FB0BFB039810EB0B0BDA45FFF480AE1A
:1019E0005FF001087EE60698401E069006980028E3
:1019F0007FF4F0AD7EE4FFE70DB0BDE8F08F0000AE
:101A0000C04C00003812002034120020544C00005A
:101A1000483E000070B504000D0000262868401EF6
:101A200028602068002801D001201BE06068802821
:101A300009D32900200000F016F806002900200034
:101A400000F0B8F804E02900200000F03DF906009D
:101A5000002E06D12900200000F000FA0600002028
:101A600000E0012070BDF0B5002600220368002BC5
:101A700040F09E8046688268C768002305240525DB
:101A800000E06D1C0E68761CB5423FD250F8257000
:101A9000802F0BD317F07F0C6D1C0E68761CB5429F
:101AA00001D1002704E050F8257001E05FF0000C40
:101AB0004FF4807606FB0CF6BE191F00FF0705D415
:101AC000082E01DBF61F02E0022600E0F61C4FF4B0
:101AD000807796FBF7FC4FF4807E96FBFEF707FBC2
:101AE0001E67BCF1000F01D1802F08D35CF0800C81
:101AF00040F824C0641C40F82470641C02E040F8E4
:101B00002470641C5B1C9342BBD3521C521E0521E3
:101B10004369802B12D307218269FD2A03D282698F
:101B2000D21C826114E08269D21C82618269B2F5A2
:101B3000807282614269521C426109E00621426959
:101B40007E2A03D24269921C426101E07F224261F7
:101B500050F82120802A22D310EB81025268002AFB
:101B600007D010EB81025268521E10EB81004260D8
:101B70001CE010EB8102FF23536010F8212012F0CB
:101B80007F0240F8212050F82120521E40F82120E9
:101B900050F8212052F0800240F8212006E050F851
:101BA0002120022A02D2022240F82120002000E057
:101BB0000120F0BD2DE9F04100225FF00008002770
:101BC000D0F804C08368D0F80CE000240525052671
:101BD00000E0761C0A68521C964272D250F826E049
:101BE00040F825E06D1CBEF1800F0FD31EF07F0C76
:101BF000761C0A68521C964202D15FF0000E01E08A
:101C000050F826E040F825E06D1C01E05FF0000C84
:101C1000E20751D5BCF1000F4ED1BEF1050F4BD2FA
:101C20006D1E802F00D36D1E6D1E50F82570802F05
:101C300005D317F07F0810EB8502576801E05FF0CD
:101C400000084FF4807202FB0CF21EEB02024FF40C
:101C5000807C0CFB08F817EB080818EB020250F820
:101C60002670761C802F05D317F07F0850F8267059
:101C7000761C01E05FF000084FF4807C0CFB08F854
:101C800017EB080818EB02024FF4807792FBF7FC81
:101C90004FF4807792FBF7FE0EFB172EBCF1800FFE
:101CA00004D35CF0800C40F825C06D1C40F825E0A2
:101CB0006D1C5B1E5B1E641C6746641C9C4288D3C3
:101CC0005B1C5B1EBDE8F0812DE9F041002700227E
:101CD0000368002B40F0BF8047688368D0F80CC0D1
:101CE00000240525052600E0761C0F687F1CBE42F7
:101CF0005BD250F826C01CF0F007F02F08D11CF082
:101D00000F07761C50F826E0761C50F826C00CE031
:101D1000BCF1800F06D300271CF07F0E761C50F814
:101D200026C002E000275FF0000E5FF4803808FB59
:101D300007F74FF4807808FB0E771CEB0707BF1CF2
:101D40005FF0100C97FBFCF7A4465FEACC7C06D44E
:101D5000FF2F00DD7F1E812F07DB01207CE0BF1AF3
:101D6000032F01DA012700E0BF1E3A004FF4807C08
:101D700097FBFCFE4FF4807897FBF8FC0CFB187C7B
:101D8000BEF1000F02D1BCF1800F08D35EF0800ECF
:101D900040F825E06D1C40F825C06D1C02E040F8BD
:101DA00025C06D1C641C9C429ED305214269802A7B
:101DB0001AD307218269052A03D38269521F8261DF
:101DC0001CE0826902F2001282618269521F826104
:101DD000027D12F07F0242614269521E42614269F5
:101DE00052F08002426109E006214269042A03D3CD
:101DF0004269D21E426101E00122426150F8212075
:101E0000802A19D310EB81025268FC2A07D210EB0A
:101E100081025268121D10EB8100426019E010EB44
:101E200081025268FC3A10EB81035A6050F821207D
:101E3000521C40F821200CE050F821207C2A05D2C9
:101E400050F82120D21C40F8212002E07F2240F8E7
:101E50002120002000E00120BDE8F081F0B587B02E
:101E600004002068002840F011810027002005258B
:101E700010E054F82560802E07D3803E4FF4807226
:101E800056436D1C54F825209619B04200D23000FC
:101E90007F1C6D1C0A689542EBD3C208821A00238E
:101EA0000025009500250395002501950025049542
:101EB00000250295002505950027052501E07F1CDA
:101EC0006D1C0E68B5421BD2AC4654F82560802EBE
:101ED00009D3803E4FF4807E0EFB06F66D1C54F84D
:101EE00025E01EEB0606B042E9D39642E7D303AEE7
:101EF00046F823C000AE46F823705B1C032BDED3EC
:101F000000206568A668E1682A0052061AD5019982
:101F1000002901D13100A9E0049954F82110882941
:101F200001D23100A2E001980099B0EB010CBCF1A4
:101F3000020F12D20098002800D100960120009EC6
:101F4000009993E001980028EDD10098002800D175
:101F500000960120009E009988E00098844540D3B7
:101F600015F0800704F21400039954F82110802919
:101F700004D3039914EB8101083103E0039914EBB6
:101F80008101091D009A921E3B0000F082F8002892
:101F900007D10098002800D100960120009E0099EA
:101FA00064E0049854F82000802805D3049814EBCA
:101FB000800010F1080103E0049814EB8000011D7B
:101FC00004F21400009A921E3B0000F062F8002810
:101FD00003D10320009E019948E00220009E019950
:101FE00044E000984708BC4503D30220009E0199B5
:101FF0003CE015F0800704F21400039954F8211016
:10200000802904D3039914EB8101091D02E003998F
:1020100014EB8101009A921E3B0000F03AF8002870
:1020200007D10098002800D100960120009E009959
:102030001CE0049854F82000802804D3049814EB82
:102040008000011D02E0049814EB800104F21400EA
:10205000009A921E3B0000F01CF8002803D10320D8
:10206000009E019902E00220009E0199F20700D52E
:10207000761CCA0700D5491C10F0070015F088052A
:1020800028436060A660E160002000E0012007B006
:10209000F0BD2DE9F04704000D0016001F005FF0B1
:1020A00000085FF0000A5FF0000901E019F1010982
:1020B000B14524D254F82A00802808D380384FF440
:1020C000807148431AF1010A54F82A1008181AF1CD
:1020D000010A55F82810802908D380394FF48072FE
:1020E000514318F1010855F82820511818F101083A
:1020F0003A0000F007F80028D8D0012000E00020C6
:10210000BDE8F08710B420280BD3C308884201D360
:10211000441A00E00C1AA34201D300202BE0012056
:1021200029E0812901D3012025E0884203D38308D7
:10213000441A080001E08B080C1A102816D2002A55
:102140000ED1052806D25B00984201D2012012E090
:10215000002010E09C4201D200200CE001200AE0A7
:10216000052C01D2002006E0012004E09C4201D2AF
:10217000002000E0012010BC704710B40B685B1E0B
:10218000444C2360444B09681960424909689142F4
:1021900012D21DE0404909683E4B1B6850F82330BD
:1021A00040F821303B490968491E3A4B19603A49C9
:1021B0000968491E384B1960364909688A42E9D3D3
:1021C00035490968334A126850F8222040F8212026
:1021D00010BC704710B40B681B1F2E4C23602D4B96
:1021E0001B682D4C096821602A4909688A4215D369
:1021F000284909684A1E11E027490968254B1B68D0
:1022000050F8233040F8213022490968491E214BFB
:10221000196021490968491E1F4B19601D49096849
:102220008A42E9D31C4909681A4B1B6850F82330CD
:1022300040F82130100010BC7047002815D18029CB
:1022400009D314480068802342F820301148006800
:10225000401C104B18600F48006842F820100D48D1
:102260000068401C0B49086013E00A4B1B6850F0E3
:10227000800042F8230007480068401C054B1860A6
:102280000448006842F8201002480068401C0149D8
:10229000086070473812002034120020CEDE0002A1
:1022A000FE07200020002004FF0FA000A0009008DF
:1022B00088088408030FCFDF840184028A008A071C
:1022C000F700840FF2008F0200019C09430A300CD2
:1022D000CDF80004FE0F120556058A048A0456053F
:1022E00052052204020402050206C2E74400C407A4
:1022F0004A022901970042032F0CF1072804270402
:10230000E0072004B5B12000200224022801A00427
:10231000FE0F0004FC0700040004FE070004C7B021
:1023200008019004FF0F0000BE04A204BE04A20432
:10233000BE04A20422053202D6B58804F80F840038
:10234000E4072604E5072404E4072404E40724043E
:10235000F40FB4AB88008800E4078400F60F450052
:102360002402E4070402640184010403B8D080025B
:10237000FE0F8200BA0482023A09AA0A790C200AE6
:102380004A050A09F101C6F79E0792049E079204C6
:102390002001FF0F08010402BF0FA404BC07A4041E
:1023A000BDDA90009004FF0F90000002FE072002AB
:1023B0002002A002200120002000B5E3200020021E
:1023C000E0072000FC0304020402FC0300004A02B0
:1023D00092049108BCB60402F4074A024F01440774
:1023E0006202AF02A0022C01930248043408B1F04B
:1023F0003E08220822093E09000908097F09280928
:10240000240924082A0A110CC9CF2000200020002A
:102410002002E007200020002000200020002004EF
:10242000FF0FCFC20004FF0F200020006000A000BB
:10243000200320022000200020002000D0D008022D
:10244000E4070B000800F40F060205020402040270
:10245000040244028401D0C548008804F40F04003B
:10246000E6070500E4070400E4072404E407240465
:10247000B5C02002F20F8400E4032002E703240227
:10248000E4032402E4030A00F10FC8FD0002FE0782
:10249000000000000001FC03000000000000000438
:1024A000FF0F0000D6E1040104011F01E20F25091E
:1024B0003F09E40F3C0927092409E40F2408BCD391
:1024C00004000404A40FFF04A404A404A404A404AA
:1024D000A404A207AA041100CBD98004F20F84003F
:1024E000F4079004F7079404C401A40294048A003A
:1024F000F10FB6C84000FC072401FC072401E401E9
:102500000400F401A4004200B1010D0EBDD384000B
:102510000401E4074F02F40F8C004704F40F240277
:10252000C40165061A08C8EB2000200040004000E6
:102530004000A000A000100108010402030C0000EC
:10254000C6A50002FE07920092009200920092043B
:102550008A0406070200FE0F0000C5E42000FF0FFA
:1025600014083E082A08AA0FB600A200BE00A2085E
:10257000BE08220FC2EB0002FF07440244024E02D3
:10258000EA0F0B080A08EA0B0E0882050002C3FBDB
:1025900020001000F8031401A20040003000FC07E6
:1025A00013041004F0071004B3C698008700C40F8A
:1025B0005F0824050C01560345052509140944014B
:1025C0008401B3AC0804C80FBE0488045F0328006C
:1025D000CA075A044A04CD071900E00FC9F92004BC
:1025E000FF0F2000FE070000FC072404FC07040086
:1025F000020002000100B2A882008400F4079104E6
:102600009200F40314025302520192014A02240C74
:10261000B2E28108FA09880AA90AAA0AAC0AAA0A37
:10262000AB0A220A52088A0A0604BEE00004DE0F42
:1026300052005200DE0748045A04CA074A005A04EE
:10264000E70F4000D1B90004FC0F0400440044022D
:10265000F40744004401420242044100FD0FCEC28F
:10266000F2031402F0031102F20314020200FB074A
:102670002A052A052A05FE0FCAAAF2071404F00744
:102680001104F207140442094B055203520142019E
:10269000FE0FB6C84000FC072401FC072401E4013A
:1026A0000400F401A4004200B1010D0EBFD52000CA
:1026B0004000FE0F0108880104060304FC0320000B
:1026C00020002004FF0FC6F808000802FC070200E3
:1026D000F9010000FE01000100010009000A000CE0
:1026E000D6CAC0037C004404FC0F4400F403140267
:1026F00054025202420121021D0CC1BFFC032402FC
:102700004402FF0F0000FC032402FC032402FC032C
:102710002000FF0FB9E24000440248024801400493
:10272000FF0F90009000900888088408030FC3F4FE
:1027300004017E018204BF0FE204AA047F05220285
:102740002A027E05A0085008BFC90004FF0F00023E
:1027500020027C02240224023C02240200028002A5
:102760000001C8BC24022406E40A9402AD0F45020D
:10277000250584044A080A0052095109CCE5840061
:102780008404FC0F8200C201A302A2029204EA0B9D
:10279000820082008200BBF0200020002000200286
:1027A00024022401A200500090000801040E03043A
:1027B000D1E684008404D4072C021500A50E640819
:1027C0002408EA0E3208E10F2008BAEC08000804D9
:1027D000E40F12011F01080104011E010301180585
:1027E000E70F0000CDE208010801380124012201B1
:1027F0002503180D10090801040103010001C8CBCD
:1028000020002000200020002000600050009000E8
:1028100008010402020C0104BCEC8400840144029F
:102820002F0CD40706000D04A504A504A40204027D
:10283000F40FBCCC040124056205AA032701E40FB0
:102840002201AF0360052C012300E00FB5E7200053
:102850002002FE0722022202FE0322022202FE03BF
:1028600020082008C00FC6F79E0792049E07920416
:102870002001FF0F08010402BF0FA404BC07A40439
:10288000BEC60004FA0F4401F10752055405320791
:102890001304F2071204F2071204BEAB0401E40FA2
:1028A0000D01C6071F01E40F4604CD074504C40708
:1028B00044044406BBF4FC032000FE0F2208AD05CF
:1028C0004800FC074600FD074400FC0F0400B6FB6F
:1028D00008000804F80F440442024100480148027D
:1028E0004404420851002000B2BD40004802C8071D
:1028F00048004804FF0F20002402220181007000DC
:102900000E00BDF840024202F40F400240024702AE
:10291000F40F4402240214020A00F10FBBFA04026D
:10292000C4075F02440246024E02550245024402B9
:10293000440A240A140CB6AF00011E010001C00FA6
:102940003F09080904099208BF084208200A180430
:10295000D3EA0004FF0F2000FE072204AA04320578
:10296000A6042A05220422052202B5CE8104FA0F0C
:1029700020024101F2079404D4059204D3055205C4
:10298000D2051206B1A8E4072404A4043F032400DE
:10299000EC072604A502A4022401A502620CBEAF26
:1029A0009404BF0F6A052E022005FF0F0000FC03F0
:1029B0000000FC030402FC03D3EF0204F40F400008
:1029C000F0034302FA0F0200E2072A042604E2079A
:1029D0002004D2F42002FE0708019000FF0F00003F
:1029E000F8030802F8030802F8030802CAB6020452
:1029F000C40F440440044704C407440404005402C0
:102A00004C0424081008BACF200060009000080190
:102A10000402FB0D0000F80308020802F803080294
:102A2000B3C940014002FC0F440044025C0294021E
:102A3000940214099A09420A310CB7E70002FC0714
:102A400004024C0254022402240254028C0A820A18
:102A5000020C0108C9C82000FC070404FC0704009C
:102A6000BC0724042C053406AA0521043006D6B878
:102A700044004406C4015F08C40F1400CC07470497
:102A8000C4074404C5074604CEC644008404F20FBC
:102A90000A022F02240242014F0180004C0123024E
:102AA000180CD5F10404E40F2F00E4072400EC0F08
:102AB0006605650354015402CD044208B1DC0001EF
:102AC0007202D40F70051002F70F5C02D40F74026B
:102AD00054020A00F10FD5CF8000EE074A02FA0F28
:102AE0002604EA072A04EA078600FA0F8200820019
:102AF000B4A504021C020A0ABF0FAA0ABE0AAA0F42
:102B0000BE0A2A022A02A90F3108C3FE4401F40FAB
:102B10004401EF072404EC072704E4078400F40FC2
:102B20004502320CC1F78000F20F84004102F20727
:102B30000404A402A402A30AA20A920A8A0CBCC634
:102B40000201040104010005F70F0401040104015E
:102B500014010C0104010001CAFD29011A01BF0F73
:102B60008C045A0409028402BF0212010C0194026F
:102B7000630CB7C040009E001204EA0F4600CA076B
:102B8000520452044E04220412050A02CBAE400045
:102B9000400040045F025001C80048014401440263
:102BA000420C51042000D0CD00047F0514057F05A0
:102BB00014051405120451064000FC074000FF0FE5
:102BC000D7E80000EF0729042504E70729042904B2
:102BD000EB07250421042104F90FCABD80028004FB
:102BE000FF0F80008000BE0088008800080178097F
:102BF000070A000CC1A6200020002004FE0F2004BC
:102C00002004200420041004080484020301D4EBEF
:102C1000E0032702E50305007507550577078500E2
:102C2000F10FA00290048808BDF4E8074A028A0167
:102C30006A0E0804900178002002FC075005480243
:102C40006604BCB11000F8004402FE070102FC0358
:102C50000002FC0320004A040909F001B0B484001A
:102C60008400EF0F14048400FC0F47022402440187
:102C7000840145063204C5A50404E40F9C048204C3
:102C80009F04E4079F048404840494048C04E40FE8
:102C9000B5C60404E40F040215020D020502040285
:102CA00004020C021202A2020101BFD88400040136
:102CB000E40F3F0844022C040600E507840084006A
:102CC0008500F20FD6C608040A047E0509057F05B3
:102CD00008057E054A054A054A046A050806B9DC66
:102CE0008400BC0F4A012100FE0F0A09F905080102
:102CF000F8030802F8030802D6B12004FF0F2000F1
:102D0000F8030802F8030802F8030802F8030802AF
:102D1000FF0FC9E408043E042204FE0F22043E040F
:102D2000A2043F052805240422053102C6B5080483
:102D3000CA0F3A01CA077F0448056A056A055905A2
:102D4000880244042308CDC14000400040004002F6
:102D5000FE0740004000400040004004FF0F00001C
:102D6000C8C08200FA0F72075F0572072202F207DD
:102D70002602FB0F2005B0026C0CD0AD44004402CB
:102D8000F4074F0244024402540A4C0A440224024B
:102D900094020C01B5F70204F40F9404D0059304D7
:102DA000F2071204DA055605D20508040406B8DF56
:102DB0002004FF0F0000F8010801F8010004FE0FD5
:102DC0000204F2049204F206B5CD0807F8001401DB
:102DD0001405F60F1501140114015409340A940A5C
:102DE000040DD2A3F007A202A4020000E007A7008E
:102DF000FC0F8400A404E6070900F00FB2C98003A9
:102E00007E0024024801A004FF0F6000B0002801EA
:102E1000240E23042000BCAF28004802FC07460013
:102E2000FD074400FC074400FF0F50014C02430C17
:102E3000CDA8F00742018400F0079004F70794043E
:102E4000F407940494060A00F10FD3C30004FC0FA6
:102E500044044404FC0744044404FC0744044204BE
:102E600042054106C4A34402F40F4402EF072404C0
:102E7000EE073504E5078400F40F4402340CC4E285
:102E80000404A4043F05240524042C042604A502FC
:102E900064062409C508320000B587B001214FF44B
:102EA000804001F0C3FC01210C2001F0AFFC4FF485
:102EB0002040ADF8000018208DF8030001208DF8A7
:102EC000020000A9DFF88C0601F0D8FA4FF4804028
:102ED000ADF8000010208DF8030000A9DFF874069B
:102EE00001F0CCFA4FF48050ADF8000010208DF8BE
:102EF000030000A9DFF8600601F0C0FA4FF480502B
:102F0000ADF8000010208DF8030000A9DFF844069A
:102F100001F0B4FA4FF48051DFF8380601F01EFBDF
:102F20004FF44040ADF804004FF48270ADF8060055
:102F30000020ADF808000220ADF80A000120ADF82D
:102F40000C004FF40070ADF80E000820ADF8100032
:102F50000020ADF812000720ADF8140001A9DFF839
:102F6000FC0501F053FD0121DFF8F00501F06DFDD6
:102F700007B000BD10B504004FF48051DFF8D8054C
:102F800001F0EFFA4FF48051DFF8C80501F0E9FADB
:102F9000E4B2210089B2DFF8C40501F063FD02212B
:102FA000DFF8B80501F060FD0028F8D04FF480513B
:102FB000DFF8A00501F0D2FA10BD10B504004FF4FF
:102FC0008051DFF8940501F0C9FA4FF48051DFF821
:102FD000840501F0C6FAE4B2210089B2DFF87C056D
:102FE00001F040FD0221DFF8740501F03DFD0028ED
:102FF000F8D04FF48051DFF85C0501F0AFFA10BD56
:1030000080B54FF48041DFF84C0501F0A7FA0A20A3
:1030100001F0D8FC4FF48041DFF8380501F0A1FA47
:103020000A2001F0CFFC4FF48041DFF8280501F0C1
:1030300095FA0A2001F0C6FC1120FFF79BFF0A2039
:1030400001F0C0FCB120FFF795FF0120FFF7B5FFAD
:103050002C20FFF7B2FF2D20FFF7AFFFB220FFF7C4
:1030600089FF0120FFF7A9FF2C20FFF7A6FF2D20E5
:10307000FFF7A3FFB320FFF77DFF0120FFF79DFFC0
:103080002C20FFF79AFF2D20FFF797FF0120FFF775
:1030900094FF2C20FFF791FF2D20FFF78EFFB42027
:1030A000FFF768FF0720FFF788FFC020FFF762FFE8
:1030B000A220FFF782FF0220FFF77FFF8420FFF7A7
:1030C0007CFFC120FFF756FFC520FFF776FFC22027
:1030D000FFF750FF0A20FFF770FF0020FFF76DFF9A
:1030E000C320FFF747FF8A20FFF767FF2A20FFF77B
:1030F00064FFC420FFF73EFF8A20FFF75EFFEE204B
:10310000FFF75BFFC520FFF735FF0E20FFF755FFE8
:103110003620FFF72FFFA020FFF74FFF2A20FFF7F1
:1031200029FF0020FFF749FF0020FFF746FF00209E
:10313000FFF743FF9F20FFF740FF2B20FFF71AFF09
:103140000020FFF73AFF0020FFF737FF0020FFF7CE
:1031500034FF7F20FFF731FFE020FFF70BFF0F2048
:10316000FFF72BFF1A20FFF728FF0F20FFF725FF9F
:103170001820FFF722FF2F20FFF71FFF2820FFF75F
:103180001CFF2020FFF719FF2220FFF716FF1F204A
:10319000FFF713FF1B20FFF710FF2320FFF70DFFA2
:1031A0003720FFF70AFF0020FFF707FF0720FFF790
:1031B00004FF0220FFF701FF1020FFF7FEFEE120D1
:1031C000FFF7D8FE0F20FFF7F8FE1B20FFF7F5FEF4
:1031D0000F20FFF7F2FE1720FFF7EFFE3320FFF777
:1031E000ECFE2C20FFF7E9FE2920FFF7E6FE2E205B
:1031F000FFF7E3FE3020FFF7E0FE3020FFF7DDFEB3
:103200003920FFF7DAFE3F20FFF7D7FE0020FFF757
:10321000D4FE0720FFF7D1FE0320FFF7CEFE1020DB
:10322000FFF7CBFEF020FFF7A5FE0120FFF7C5FE5C
:10323000F620FFF79FFE0020FFF7BFFE3A20FFF7C2
:1032400099FE0520FFF7B9FE2920FFF793FE01BD87
:1032500070B504002A20FFF78DFE0020FFF7ADFEB9
:103260000020FFF7AAFE2B20FFF784FE0020FFF7C7
:10327000A4FE0020FFF7A1FE2C20FFF77BFE002517
:103280000DE0C4F30720C0B2FFF797FE2000C0B2E4
:10329000FFF793FE761CF6B2A02EF2D36D1CEDB2B2
:1032A000802D01D20026F6E770BD2DE9F041070020
:1032B000884614001D00069E2A20FFF75BFEC7F318
:1032C0000720C0B2FFF779FE3800C0B2FFF775FEE5
:1032D000601EC719C7F30720C0B2FFF76EFE3800A3
:1032E000C0B2FFF76AFE2B20FFF744FEC8F30720A9
:1032F000C0B2FFF762FE4046C0B2FFF75EFE681E36
:1033000010EB0808C8F30720C0B2FFF756FE40468E
:10331000C0B2FFF752FE2C20FFF72CFE5FF0000832
:103320000DE0C6F30720C0B2FFF747FE3000C0B281
:10333000FFF743FE7F1CA742F3D318F10108A8450D
:1033400001D20027F7E7BDE8F08170B504000D0059
:1033500016002A20FFF70EFEC4F30720C0B2FFF7C5
:103360002CFE2000C0B2FFF728FE2B20FFF702FE44
:10337000C5F30720C0B2FFF720FE2800C0B2FFF758
:103380001CFE2C20FFF7F6FDC6F30720C0B2FFF7A6
:1033900014FE3000C0B2FFF710FE70BD2DE9F84FEB
:1033A00006000C0015001F0097F8008003E0B61D12
:1033B0007F1C97F800805FFA88F8B8F1000F2CD0D6
:1033C000B8F12000C0B25F2801D35FF02008B8F147
:1033D00020085FF0000912E05FEA0A6006D52A00C3
:1033E00019EB04011BEB0600FFF7AFFF5FEA4A0A87
:1033F0001BF1010BBBF1060FEEDB19F10109B9F16D
:103400000C0FD4DA5FFA88F80C2000FB08905449BE
:1034100010F801A05FF0000BECE7BDE8F18F2DE99B
:10342000F84F06000C0015001F0097F8008003E01D
:10343000B61D7F1C97F800805FFA88F8B8F1000F7E
:103440002CD0B8F12000C0B25F2801D35FF0200873
:10345000B8F120085FF0000912E05FEA0A6006D5C3
:103460002A001BEB040119EB0600FFF76EFF5FEA71
:103470004A0A1BF1010BBBF1080FEEDB19F1010940
:10348000B9F1050FD4DA5FFA88F8052000FB08903F
:10349000344910F801A05FF0000BECE7BDE8F18FB4
:1034A0002DE9F84F06000D0014001F0002E00C3D4E
:1034B0000D36BF1C3878002849D0002000E0401CA1
:1034C0007628F5D21A21284A01FB002109783A789A
:1034D0009142F4D11A21244A01FB002149787A78DB
:1034E0009142ECD11A21204A01FB0020801C00905F
:1034F0005FF0000816E0012010FA09F01BEA000F47
:1035000004D0220029003000FFF71FFF761C19F1BC
:103510000109D145EFDBBAF1040F01D16D1C0C3E5E
:1035200018F10108B8F1180FC1DA009818F800B0C6
:10353000022098FBF0F101FB1081002902D05FF01E
:10354000040A01E05FF0080A5FF00009E1E7BDE866
:10355000F18F0000000C01400008014000380040DD
:1035600000040020004100009C22000080B50121E1
:10357000042001F04BF94C48402101804A481021B9
:10358000C1704948032181704749484800F076FFDF
:103590004021464800F0E2FF01BD80B5424840218D
:1035A000018041484821C1703F49404800F066FF12
:1035B00001BD80B53C48402101803B481021C170CD
:1035C00039493A4800F05AFF01BD80B540213748DB
:1035D00000F0C4FF01BD80B54021344800F0C1FFB8
:1035E00001BD80B54021314800F0AEFF02BD80B57D
:1035F0000121092001F00AF901212D4800F0B4FF52
:1036000029482021018028481021C1702648032123
:1036100081702549274800F031FF2021254800F01E
:103620009DFF01BD80B52048202101801E4810214A
:10363000C1701D491F4800F021FF01BD80B5202148
:103640001C4800F08BFF01BD80B52021194800F017
:1036500088FF01BD80B50121042001F0D7F8124890
:103660008021018010481021C1700F480321817012
:103670000D49104800F002FF80210C4800F06EFF59
:1036800001BD80B508488021018007484821C170EC
:103690000549064800F0F2FE01BD80B580210348CF
:1036A00000F052FF02BD00003C1200200008014063
:1036B00000023000000C0140002105E00A210A0050
:1036C000511E92B2002AFAD10100481E89B2002987
:1036D000F4D17047002106E042F6E0610A00511E75
:1036E00092B2002AFAD10100481E89B20029F3D112
:1036F000704780B5FFF73AFFFFF767FFFFF759FF05
:10370000FFF775FFFFF79AFFFFF78CFFFFF7A2FFA8
:10371000FFF7B7FF01BD10B5FFF73FFF4620FFF7EA
:10372000CBFF4620FFF7C8FF4620FFF7C5FF462026
:10373000FFF7C2FFFFF782FF4620FFF7BDFF4620DD
:10374000FFF7BAFF4620FFF7B7FF4620FFF7B4FFA9
:10375000FFF747FF04004620FFF7AEFF4620FFF7C4
:10376000ABFF4620FFF7A8FF4620FFF7A5FFFFF7B6
:103770006BFF4620FFF7A0FF4620FFF79DFF462086
:10378000FFF79AFF4620FFF797FF2000C0B210BD59
:1037900080B5FFF70EFF4620FFF78EFFFFF71BFFF8
:1037A0004620FFF789FFFFF749FF4620FFF784FF18
:1037B000FFF74AFF01BD80B5FFF7D8FEFFF717FFFF
:1037C000FFF7F7FEFFF72EFFFFF738FFFFF7FDFECD
:1037D000002002BD80B5FFF7ECFEFFF723FFFFF7E7
:1037E0002DFFFFF7F2FE002002BD80B5FFF7E1FEDE
:1037F000FFF718FFFFF722FFFFF7E7FE4620FFF76E
:103800005BFF4620FFF758FFFFF7E5FE4620FFF776
:1038100053FF4620FFF750FF4620FFF74DFF46209D
:10382000FFF74AFF4620FFF747FF4620FFF744FF18
:103830004620FFF741FF4620FFF73EFF4620FFF7F7
:103840003BFF4620FFF738FFFFF7FEFE4620FFF75D
:1038500033FF4620FFF730FF012002BD80B5FFF7A0
:10386000A8FEFFF7DFFEFFF7EFFEFFF7B4FE4620EE
:10387000FFF722FFFFF7E2FE4620FFF71DFFFFF7ED
:10388000A4FE4620FFF718FF002002BD38B5040053
:10389000FFF78FFEFFF7D8FE4620FFF70DFF072545
:1038A0000CE0FFF798FE4620FFF706FFFFF7C6FE85
:1038B0004620FFF701FFFFF7C7FE6D1E002D0DD458
:1038C0004620FFF7F9FEE4B254FA05F010F00100CB
:1038D000C0B20028E5D0FFF778FEE4E7FFF71BFF52
:1038E000C0B280B232BD70B504000D00FFF763FFB7
:1038F0004620FFF7E1FEFFF7A7FE4620FFF7DCFEBC
:103900004620FFF7D9FEFFF799FE1920FFF7E2FEE8
:10391000FFF76BFF4620FFF7CFFE002608E0F6B268
:10392000305DC0B2FFF7B2FF4620FFF7C5FE761C40
:10393000F6B2EDB2AE42F2D34620FFF7BDFEFFF77E
:103940008DFF4620FFF7B8FEFFF744FF4620FFF744
:10395000B3FE70BD80B5FFF72EFF4620FFF7ACFE2B
:10396000FFF772FE4620FFF7A7FE4620FFF7A4FEF2
:10397000FFF764FE1920FFF7ADFEFFF736FF462084
:10398000FFF79AFE3020FFF781FF4620FFF794FEF5
:103990001020FFF77BFF4620FFF78EFE4020FFF749
:1039A00075FF4620FFF788FE4620FFF785FEFFF7EC
:1039B00055FF4620FFF780FEFFF70CFF4620FFF77C
:1039C0007BFE01BD70B5040000250826FFF7E5FD6C
:1039D00010E06D00FFF732FE4620FFF76DFEFFF7A7
:1039E00000FE0543FFF730FE4620FFF765FE462048
:1039F000FFF762FE3000461EC0B20028E9D1FFF793
:103A000023FE4620FFF758FE2570FFF7C1FE462033
:103A1000FFF752FE4620FFF74FFE002070BD70B545
:103A200082B004000025FFF7C6FE4620FFF744FEE3
:103A3000FFF70AFE4620FFF73FFE4620FFF73CFE59
:103A4000FFF7FCFD1920FFF745FEFFF7CEFE4620ED
:103A5000FFF732FE3020FFF719FF4620FFF72CFE5C
:103A60005220FFF713FF4620FFF726FEFFF7BDFEAB
:103A70004620FFF721FE3120FFF708FF4620FFF721
:103A80001BFE00A8FFF79EFF4620FFF715FE9DF8DE
:103A9000000000280BD0FFF7E1FE4620FFF70CFEE8
:103AA000FFF798FE4620FFF707FE002030E00025D4
:103AB000EDB29DF800002855B32601250DE000A8C1
:103AC000FFF780FF4620FFF7F7FDEDB29DF80000FD
:103AD00028559DF8000086196D1CEDB26E2DEED3B1
:103AE00000A8FFF76FFF4620FFF7E6FDFFF7B6FEE1
:103AF0004620FFF7E1FDFFF76DFE4620FFF7DCFDF6
:103B00009DF80000F6B2B04201D0002000E0012094
:103B100076BD00006421484300E0401E0028FCD12F
:103B20006E2000E0401EC0B20128FBD2704710B5E5
:103B30000024482000F032FFFFF7AEF9FFF760FAEB
:103B40001F20FFF785FB00F00AF900F094F800F061
:103B5000B0F8FFF7CEFD00F051F8B048007801282A
:103B600012D1E4B2002C0FD1AC4800210170FFF754
:103B7000F1FE4FF48071AA4800F0F3FC4FF400719D
:103B8000A74800F0EBFC0124FFF787FD01281ED1B8
:103B9000E4B2012C1BD1A348FCF7A8FA70280BD182
:103BA00000F02CF870229F499F48007870239F4CAA
:103BB00003FB004001F076F800244FF48071984830
:103BC00000F0CCFC4FF40071954800F0CAFC93481B
:103BD00000780228C1D191480021017092480078F4
:103BE000142808D270219048007870228F4B02FB75
:103BF0000030FFF778FE00F001F8AEE780B54FF433
:103C00008071874800F0AAFC41F6FF70FFF782FF41
:103C10004FF48071824800F0A4FC41F6FF70FFF77A
:103C200079FF4FF480717E4800F098FC41F6FF70F8
:103C3000FFF770FF4FF48071794800F092FC41F675
:103C4000FF70FFF767FF4FF48071754800F086FC46
:103C500041F6FF70FFF75EFF4FF48071704800F08F
:103C600080FC41F6FF70FFF755FF4FF480716C4800
:103C700000F074FC01BD80B50121082000F0C6FDF4
:103C80004FF44070ADF8000010208DF803000320C1
:103C90008DF8020000A9624800F0F0FB4FF480713B
:103CA0005F4800F05BFC4FF400715D4800F059FC88
:103CB00001BD00B587B00121042000F0A7FD01215E
:103CC0005FF4003000F0B2FD26208DF804000020E3
:103CD0008DF8050000208DF8060001208DF8070002
:103CE00001A800F0C1FD0420ADF8000018208DF8F7
:103CF000030003208DF8020000A94D4800F0BEFB30
:103D00000820ADF8000004208DF8030003208DF892
:103D1000020000A9464800F0B1FB5FF4E1300290D8
:103D20000020ADF80C000020ADF80E000020ADF82A
:103D300010000C20ADF812000020ADF8140002A90C
:103D40003C4800F0CDFA012240F22551394800F0FC
:103D500036FB0121374800F025FB07B000BDF8B560
:103D6000354C364F364E374D4FF6FF7000900923D5
:103D7000A02200210020FFF798FA200000F0EAFEC0
:103D80002300002201215FF0A00C5FF0060E0EFB65
:103D900010C04008FFF743FB380000F0DBFE3B009B
:103DA0004FF478421821A0275FF0060C0CFB10702E
:103DB0004008FFF7F3FA300000F0CCFE33004FF478
:103DC00078422821A026062707FB10604008FFF74D
:103DD000E5FA280000F0BEFE2B004FF471424621A8
:103DE000A025062606FB10504008FFF759FB4FF6AA
:103DF000FF7000900923A02277210020FFF755FAD9
:103E0000200000F0A7FE230000227821A024062530
:103E100005FB10404008FFF702FBF1BD48120020EF
:103E2000000C0140C4110020491200209408002019
:103E30000008014000440040644C0000744C000045
:103E4000104C0000844C000000002800FA007701AC
:103E500000002800960113020000F000000C00F0A2
:103E6000A8002501F000000C00F0A8002501F102D7
:103E7000F108F20000000000000000000000000057
:103E80000000000000000000000000000000000032
:103E90000000000000000000000000000000000022
:103EA000002800D40064010000280070011F0200F7
:103EB00000F105F106F20000000000000000000023
:103EC00000000000000000000000000000000000F2
:103ED00000000000000000000000000000000000E2
:103EE00000000000000000000000000000000000D2
:103EF000000000000000160023003E00BB0016007A
:103F00002300DA0057010000F105F107F20000007C
:103F100000000000000000000000000000000000A1
:103F20000000000000000000000000000000000091
:103F30000000000000000000000000000000000081
:103F40000000000000000000000000000001003739
:103F500000DA00700100003700830113020000F056
:103F600001003700F08C002801F001003700F08CD0
:103F7000002801F104F106F200000000000000003A
:103F80000000000000000000000000000000000031
:103F90000000000000000000000000000000000021
:103FA00000000000120024001200240044001B0046
:103FB0002B001B000100F06A00E700F030003D001C
:103FC000F012002400F012002400F012002400F08F
:103FD00012002400F012002400F012002400F0125D
:103FE000002400F012002400F031003D00F0310008
:103FF0003D00F108F108F108F108F2120024001266
:104000000024005A0037003E001B000100F06A0047
:10401000E700F031003D00F104F031003D00F031E7
:10402000003D00F108F108F200000000000000006F
:104030000000000000000000000000000000000080
:104040000000000000000000000000000000000070
:1040500000002800410028004100760034005D0087
:1040600034000101F108F106F20000000000000038
:104070000000000000000000000000000000000040
:104080000000000000000000000000000000000030
:104090000000000000000000000000000000000020
:1040A00000000000000000000012002B0012002B96
:1040B0000012002B003F001F000100F012002B0037
:1040C000F07600C800F012002B00F02F005D00F029
:1040D0002F005D00F012002B00F10DF012002B00FC
:1040E000F03801230FF012002B00F07600C800F228
:1040F00000000000000000000000000000000000C0
:1041000000000000000000FA000000E000E00028CD
:10411000FE28FE282474DE5448C4C81026466C923B
:104120006A040A0020C080000038448200008244F3
:1041300038004428FE28441010FE1010020C08001D
:104140000010101010100006060000040810204097
:104150007C8A92A27C0042FE0200468A929262848D
:104160008292B2CC182848FE08E4A2A2A29C3C523B
:1041700092928C808E90A0C06C9292926C6292927D
:104180009478006C6C0000026C6C00001028448273
:10419000002828282828008244281040809AA0401F
:1041A0007C82BAAA7A3E4888483EFE9292926C7C03
:1041B00082828244FE8282827CFE92929282FE9071
:1041C0009090807C828A8A4EFE101010FE0082FE43
:1041D0008200040282FC80FE10284482FE02020259
:1041E00002FE403040FEFE201008FE7C8282827C6F
:1041F000FE909090607C828A847AFE9098946264AB
:104200009292924C8080FE8080FC020202FCF804B4
:104210000204F8FE041804FEC6281028C6C0201E9A
:1042200020C0868A92A2C2FEFE8282004020100830
:1042300004008282FEFE2040FE4020103854101000
:104240000000804020242A2A1C02FE1422221C1C6A
:10425000222222101C222214FE1C2A2A2A10107E3E
:10426000909040192525251EFE1020201E00009E3E
:1042700000000001119E00FE081422020082FE02CE
:10428000001E201E201E201E20201E1C2222221C5A
:104290003F24242418182424243F201E20201012F8
:1042A0002A2A2A2420FC2222243C02023C0238042E
:1042B0000204383C023C023C221408142239050551
:1042C000093E22262A3222106C8200000000EE00F5
:1042D000000000826C101020100810AA54AA54AAE2
:1042E000F0B585B004000D0000200021002200235D
:1042F0000026AF89002F2600208A4CF6FF71084067
:10430000E98808432082A0894EF6F3110840A98865
:104310002A8911436A8911430843A081A08A4FF674
:10432000FF410840A9890843A08200A800F00EFAC6
:104330001B48864201D1039900E00299A08900043C
:1043400007D5192000FB01F029684900B0FBF1F204
:1043500006E0192000FB01F029688900B0FBF1F2AA
:104360006420B2FBF0F000010109642303FB112378
:10437000A189090408D5D90032316422B1FBF2F1D8
:1043800011F00701084307E0190132316422B1FB43
:10439000F2F111F00F010843208105B0F0BD0000DB
:1043A00000380140C9B2002904D0818951F400517C
:1043B000818103E0818921F4005181817047F0B44B
:1043C000002300240025002640F66A1789B2B9426E
:1043D00006000800C0B24309DBB289B211F01F0425
:1043E000012010FA04F5012B01D10C3604E0022B58
:1043F00001D1103600E01436D2B2002A03D0306862
:104400002843306002E03068A8433060F0BC704759
:104410008088C005C00D704770B4002300240025BB
:10442000002240F66A1689B2B1420A00D2B255099A
:10443000EDB289B211F01F04012212FA04F4012D29
:1044400002D18289144006E0022D02D1028A144072
:1044500001E0828A144089B20B0A9BB2012111FA51
:1044600003F300880340002C03D0002B01D001226D
:1044700000E000221000C0B270BC7047F0B400220F
:104480000026002400250023002791F803C01CF01B
:104490000F0C624691F803C05FEACC6C01D58B78B3
:1044A0001A430B781B0621D00368002406E0CD7860
:1044B000482D02D10125A5400561641C082C14D2A9
:1044C0000125A5400E882E40AE42F6D1A5000F264C
:1044D00016FA05F7BB4312FA05F52B43CD78282DC4
:1044E000E5D10125A5404561E7E703600B884FF45E
:1044F0008074A34226D34368002420E0012514F1F0
:104500000806B5400E882E40AE4217D1A5000F26F2
:1045100016FA05F7BB4312FA05F52B43CD78282D83
:1045200004D1012514F10806B5404561CD78482D28
:1045300004D1012514F10806B5400561641C082C5E
:10454000DCD34360F0BC704700228068084201D091
:10455000012200E000221000C0B2704789B2016160
:10456000704789B24161704770B400220024002373
:104570000025002802D51D4A136801E01C4A136873
:10458000C0F3034582B210F44014B4F5401F08D1C3
:1045900033F07063164C246834F07064144D2C6052
:1045A00010E0C40205D50324AC40A34353F070636C
:1045B00008E0C0F34754E4B2240112FA04F4A34320
:1045C00053F07063C9B2002906D0C0F34751C9B295
:1045D000090112FA01F10B43002802D503480360D8
:1045E00001E00348036070BC704700001C000140FC
:1045F0000400014080B54E48006850F001004C496D
:1046000008604C4800684C4908404A4908604848DE
:1046100000684A490840464908604548016821F455
:10462000802101604348006830F4FE004149086081
:1046300043485FF41F01016000F005F841485FF056
:104640000061016001BD80B500F001F801BD82B0DC
:1046500000200190002000903548006850F4803020
:10466000334908603248006810F400300090019827
:10467000401C01900098002803D10198B0F5A06F6C
:10468000F0D12B480068800302D50120009001E0A2
:10469000002000900098012847D12B48006850F076
:1046A00010002949086028480068800880002649D1
:1046B00008602548006850F00200234908601D4842
:1046C0001C49096801601B481A49096801601948BA
:1046D000006850F48060174908601648006830F49C
:1046E0007C10144908601348006850F4E810114920
:1046F00008600F48006850F080700D4908600C4851
:1047000000688001FBD50B480068800880000949DB
:1047100008600848006850F0020006490860054833
:10472000006810F00C000828F9D102B070470000B2
:1047300000100240041002400000FFF8FFFFF6FEE8
:104740000810024008ED00E00020024030B40022D2
:104750000021002300243D4D2D6815F00C052A0092
:10476000002A04D0042A05D0082A06D021E03849BE
:10477000016020E0364901601DE03449096811F408
:104780007011324A126812F48033890C891C002B94
:1047900003D1304A514301600DE02C4A1268920364
:1047A00003D52C4A5143016005E0294A5143016079
:1047B00001E0274901602549096811F0F00212095A
:1047C0002549545C0168E14041602049096811F4C1
:1047D000E062120A2049545C4168E14081601B4953
:1047E000096811F46052D20A1B49545C4168E140E7
:1047F000C1601649096811F44042920B1749545C94
:10480000C168B1FBF4F1016130BC7047C9B2002945
:1048100005D01349096808431149086005E01049AB
:10482000096831EA00000E4908607047C9B20029E2
:1048300005D00C49096808430A49086005E00949A0
:10484000096831EA00000749086070470410024017
:1048500000127A0000093D00800800209008002026
:10486000181002401C10024010B4002100220F2337
:10487000C478002C1ED01E49096811F4E061D1F5FE
:10488000E061090AD1F10402CB404178914082787D
:104890001A40114309010278164BD154017849118D
:1048A000154A0123007810F01F0013FA00F042F8B7
:1048B00021000AE001784911104A0123007810F024
:1048C0001F0013FA00F042F8210010BC70470428C2
:1048D00006D10B48006850F004000949086004E064
:1048E0000748016821F004010160704700000000E2
:1048F0000CED00E000E400E000E100E080E100E019
:1049000010E000E0F0B500F10801026801EBC2021E
:10491000406802EBC000002300241D4601260CE085
:1049200013F8017BF44506D00CF8017B6D1C2DB209
:10493000002DF7D40126F44509D1824200D1F0BD03
:1049400052F804CB52F8047B07EB0C0EF3E7A342BA
:1049500006D151F8043B51F8044BE418A342F8D0B7
:104960005EB113F9015B0026A34206D151F8043B66
:1049700051F8044BE418A342F8D0002DD0D4002DF8
:10498000D8D4F44518BFA3421FBF13F8017B0CF81D
:10499000017B6D1E2DB2F2D1CDE7000010B50400F1
:1049A0007FF00400FFF793FFE4B2082094FBF0F0DF
:1049B00011490870104800784FF47A7148430F4944
:1049C000088010BD80B20D49098848430C49086031
:1049D0000C48002101600C48012101600A48006870
:1049E00010F001100128F9D00748002101600548A6
:1049F000002101607047000047120020441200208F
:104A000014E000E018E000E010E000E010B4002244
:104A100003881A0012F441520B884C8823438C8877
:104A20002343CC8823430C8923434C8923438C891B
:104A30002343CC8923431A430280828B22F40062F1
:104A40008283098A018210BC7047C9B2002904D050
:104A5000018851F04001018003E0018821F040010C
:104A6000018070478181704700220089084201D08F
:104A7000012200E000221000C0B270474AB38B0749
:104A800007D011F8013B00F8013B521E21D08B07E3
:104A9000F7D183071ED1103A07D330B4B1E83810EC
:104AA000103AA0E83810F9D230BC530724BFB1E85F
:104AB0000810A0E8081044BF51F8043B40F8043B3C
:104AC000D20724BF31F8022B20F8022B44BF0B7809
:104AD00003707047083A07D3B1E80810083A40F865
:104AE000043B40F804CBF7D25307E4E710B50024A9
:104AF00040F225510E48FFF78FFC002817D00C48D4
:104B0000FFF786FC040064B2012C05DB0948022192
:104B10000170094804700AE064B2002C07D505480A
:104B200001210170FF2000FB04F00349087010BD53
:104B30000044004048120020491200207047FEE760
:104B4000FEE7FEE7FEE77047704770477047704723
:104B50007047704700F10103810704D010F8011B72
:104B600089B18107FAD10268B2F10131914311F0A4
:104B7000803F04BF50F8042FF6E710F8011B11B175
:104B800010F8011BFBE7C01A70470000F54B00004E
:104B9000B80900009408002000000000054900004A
:104BA0000100000001000000A24D00008C03000085
:104BB000000400209404000010B50548054CA042F4
:104BC00004D050F8041B8847A042FAD110BD00BFA2
:104BD0008C4B0000B84B000000B5054A1068002857
:104BE00004D011000220ABBE0020106000BD000008
:104BF00040120020002305E050F8041B41F8043B5C
:104C0000121FFBD150F8042B002AF5D17047000089
:104C100050414E49443A20323130302020434841FF
:104C20004E454C3A3131000000F0B9F8002801D06F
:104C3000FFF7C2FF0020FEF77AFF00F045F8000002
:104C400080B5FFF7C9FF024A11001820ABBEFBE791
:104C500026000200D4013801D3013601220183006D
:104C6000B70137017777772E7A6F6E6573696F6E4C
:104C7000000000005A696742656520323030372FE6
:104C800050524F00BAECCDE2D2A3BFD8B4ABB8D0EB
:104C9000C6F700000148804701480047F54500007D
:104CA000294C000010B504002000FFF7E7FE2000AB
:104CB00010BD000007463846FFF7C2FFFBE70000C3
:104CC00006040A061004020080B5FFF7F3BFFFF7E1
:104CD00035BFFFF734BFFFF733BFFFF732BFFFF732
:104CE00031BFFFF731BFFFF72EBFFFF72EBFFFF732
:104CF0002DBFFFF7FEBFFFF7FEBFFFF7FEBFFFF7B9
:104D0000FEBFFFF7FEBFFFF7FEBFFFF7FEBFFFF7D7
:104D10001EBFFFF7FEBFFFF7FEBFFFF7FEBFFFF7A7
:104D2000FEBFFFF7FEBFFFF7FEBFFFF7FEBFFFF7B7
:104D3000FEBFFFF7FEBFFFF7FEBFFFF7FEBFFFF7A7
:104D400007BFFFF706BFFFF7FEBFFFF7FEBFFFF786
:104D5000FEBFFFF7FEBFFFF7FEBFFFF7FEBFFFF787
:104D6000FEBFFFF7FEBFFFF7FEBFFFF7FEBFFFF777
:104D7000FEBFFFF7FEBFFFF7FEBFFFF7FEBFFFF767
:104D8000FEBFFFF7FEBFFFF7FEBFFFF7AFBEFFF7A7
:104D9000FEBFFFF7FEBFFFF7FEBFFFF7FEBF01201C
:104DA0007047F300FB1002000010FC00026C484842
:104DB000F700081414287C287C285050FD000810A7
:104DC0003840403848701010FD00072050200C700B
:104DD000081408FA0005182020544834FC00FC1080
:104DE000F800010808FA1005080800002020FA1051
:104DF0000820200000107C102828F800FD1000FC7E
:104E0000FD10F6000318103020FA00007CF30001BA
:104E10003030FC0008040408081010202040FD0079
:104E20000038FA440038FC000030FA10007CFC0026
:104E300007384404081020447CFC00073844041858
:104E400004044438FC00070C141424447C040CFCB7
:104E500000073C20203804044438FC00031C204098
:104E600078FD440038FC00027C4404FD0801101069
:104E7000FC000338444438FD440038FC000038FD91
:104E800044033C040870FA0005303000003030FA6A
:104E9000000618180000183020FC00060C10608076
:104EA00060100CF900027C007CF90006C020180498
:104EB0001820C0FB000618240408100030FD00096B
:104EC0003844444C54544C404438FD00013010FDEB
:104ED00028027C44ECFC0003F8444478FD4400F8CC
:104EE000FC00013C44FC40014438FC0001F048FC5B
:104EF000440148F0FC0007FC445070504044FCFC66
:104F000000077C20283828202070FC00073C444003
:104F1000404C444438FC0003EC44447CFD4400EC29
:104F2000FC00007CFA10007CFC00003CFD08FD4801
:104F30000030FC0007EC444850704844E4FC00009A
:104F400070FC200224247CFC0007EC6C6C5454445C
:104F500044ECFC0002EC6464FD54014CECFC0000E9
:104F600038FA440038FC000078FD24033820207013
:104F7000FC000038FA4401381CFD0000F8FD440331
:104F8000784844E0FC0007344C403804046458FC82
:104F90000001FC90FB100038FC0000ECFA440038E3
:104FA000FC0002EC4444FD28011010FC0002EC441B
:104FB00044FC540028FC0007C4442810102844C4B2
:104FC000FC0003EC442828FD100038FC00077C445A
:104FD00008101020447CFC000038F8200338000042
:104FE00040FD20011010FD08FD000038F8080638CB
:104FF000000010102844EE0003FC001008F4000527
:1050000038443C44443CFC0003C0405864FD440028
:10501000F8FA00053C4440404438FC00030C0434DA
:105020004CFD44003CFA000538447C40403CFC0008
:10503000021C207CFC20007CFA0001344CFD44085A
:105040003C04380000C0405864FD4400ECFC000201
:10505000100070FC10007CFC0002100078FA080AB6
:10506000700000C0405C48705048DCFC000030FA22
:1050700010007CFA0000E8FC5400FCFA0001D8643F
:10508000FD4400ECFA000038FC440038FA0001D876
:1050900064FD44027840E0FC0001344CFD44023CD5
:1050A000040CFC00016C30FD20007CFA00053C443F
:1050B00038044478FB0001207CFC20001CFA00002E
:1050C000CCFD44014C34FA0005EC4444282810FA85
:1050D0000001EC44FD540028FA0005CC483030486B
:1050E000CCFA0007EC44242818101078FC00057C4A
:1050F000481020447CFC000008FC100020FD100239
:10510000080000F710FD000020FC100008FD100052
:1051100020FA00012458F600012458F7000F01027C
:0E51200003040102030406070809020406083E
:0400000500004C2982
:00000001FF
